{
	"contracts/calculator.sol": {
		"calculator": {
			"abi": [
				{
					"inputs": [],
					"stateMutability": "nonpayable",
					"type": "constructor"
				},
				{
					"inputs": [
						{
							"internalType": "int256",
							"name": "x",
							"type": "int256"
						},
						{
							"internalType": "int256",
							"name": "y",
							"type": "int256"
						}
					],
					"name": "add",
					"outputs": [],
					"stateMutability": "nonpayable",
					"type": "function"
				},
				{
					"inputs": [
						{
							"internalType": "int256",
							"name": "x",
							"type": "int256"
						},
						{
							"internalType": "int256",
							"name": "y",
							"type": "int256"
						}
					],
					"name": "divide",
					"outputs": [],
					"stateMutability": "nonpayable",
					"type": "function"
				},
				{
					"inputs": [],
					"name": "get",
					"outputs": [
						{
							"internalType": "int256",
							"name": "",
							"type": "int256"
						}
					],
					"stateMutability": "view",
					"type": "function"
				},
				{
					"inputs": [
						{
							"internalType": "int256",
							"name": "x",
							"type": "int256"
						},
						{
							"internalType": "int256",
							"name": "y",
							"type": "int256"
						}
					],
					"name": "multiply",
					"outputs": [],
					"stateMutability": "nonpayable",
					"type": "function"
				},
				{
					"inputs": [
						{
							"internalType": "int256",
							"name": "x",
							"type": "int256"
						},
						{
							"internalType": "int256",
							"name": "y",
							"type": "int256"
						}
					],
					"name": "subtract",
					"outputs": [],
					"stateMutability": "nonpayable",
					"type": "function"
				}
			],
			"devdoc": {
				"kind": "dev",
				"methods": {},
				"version": 1
			},
			"evm": {
				"assembly": "    /* \"contracts/calculator.sol\":57:522  contract calculator {... */\n  mstore(0x40, 0x80)\n    /* \"contracts/calculator.sol\":100:141  constructor() {... */\n  callvalue\n  dup1\n  iszero\n  tag_1\n  jumpi\n  revert(0x00, 0x00)\ntag_1:\n  pop\n    /* \"contracts/calculator.sol\":133:134  0 */\n  0x00\n    /* \"contracts/calculator.sol\":124:130  result */\n  0x00\n    /* \"contracts/calculator.sol\":124:134  result = 0 */\n  dup2\n  swap1\n  sstore\n  pop\n    /* \"contracts/calculator.sol\":57:522  contract calculator {... */\n  dataSize(sub_0)\n  dup1\n  dataOffset(sub_0)\n  0x00\n  codecopy\n  0x00\n  return\nstop\n\nsub_0: assembly {\n        /* \"contracts/calculator.sol\":57:522  contract calculator {... */\n      mstore(0x40, 0x80)\n      callvalue\n      dup1\n      iszero\n      tag_1\n      jumpi\n      revert(0x00, 0x00)\n    tag_1:\n      pop\n      jumpi(tag_2, lt(calldatasize, 0x04))\n      shr(0xe0, calldataload(0x00))\n      dup1\n      0x3c4308a8\n      eq\n      tag_3\n      jumpi\n      dup1\n      0x6d4ce63c\n      eq\n      tag_4\n      jumpi\n      dup1\n      0xa5f3c23b\n      eq\n      tag_5\n      jumpi\n      dup1\n      0xb93ea812\n      eq\n      tag_6\n      jumpi\n      dup1\n      0xf5984236\n      eq\n      tag_7\n      jumpi\n    tag_2:\n      revert(0x00, 0x00)\n        /* \"contracts/calculator.sol\":297:367  function multiply(int x, int y) public {... */\n    tag_3:\n      tag_8\n      0x04\n      dup1\n      calldatasize\n      sub\n      dup2\n      add\n      swap1\n      tag_9\n      swap2\n      swap1\n      tag_10\n      jump\t// in\n    tag_9:\n      tag_11\n      jump\t// in\n    tag_8:\n      stop\n        /* \"contracts/calculator.sol\":448:519  function get() public view returns (int) {... */\n    tag_4:\n      tag_12\n      tag_13\n      jump\t// in\n    tag_12:\n      mload(0x40)\n      tag_14\n      swap2\n      swap1\n      tag_15\n      jump\t// in\n    tag_14:\n      mload(0x40)\n      dup1\n      swap2\n      sub\n      swap1\n      return\n        /* \"contracts/calculator.sol\":147:215  function add(int x, int y) external  {... */\n    tag_5:\n      tag_16\n      0x04\n      dup1\n      calldatasize\n      sub\n      dup2\n      add\n      swap1\n      tag_17\n      swap2\n      swap1\n      tag_10\n      jump\t// in\n    tag_17:\n      tag_18\n      jump\t// in\n    tag_16:\n      stop\n        /* \"contracts/calculator.sol\":221:291  function subtract(int x, int y) public {... */\n    tag_6:\n      tag_19\n      0x04\n      dup1\n      calldatasize\n      sub\n      dup2\n      add\n      swap1\n      tag_20\n      swap2\n      swap1\n      tag_10\n      jump\t// in\n    tag_20:\n      tag_21\n      jump\t// in\n    tag_19:\n      stop\n        /* \"contracts/calculator.sol\":373:442  function divide(int x, int y) public {... */\n    tag_7:\n      tag_22\n      0x04\n      dup1\n      calldatasize\n      sub\n      dup2\n      add\n      swap1\n      tag_23\n      swap2\n      swap1\n      tag_10\n      jump\t// in\n    tag_23:\n      tag_24\n      jump\t// in\n    tag_22:\n      stop\n        /* \"contracts/calculator.sol\":297:367  function multiply(int x, int y) public {... */\n    tag_11:\n        /* \"contracts/calculator.sol\":359:360  y */\n      dup1\n        /* \"contracts/calculator.sol\":355:356  x */\n      dup3\n        /* \"contracts/calculator.sol\":355:360  x * y */\n      tag_26\n      swap2\n      swap1\n      tag_27\n      jump\t// in\n    tag_26:\n        /* \"contracts/calculator.sol\":346:352  result */\n      0x00\n        /* \"contracts/calculator.sol\":346:360  result = x * y */\n      dup2\n      swap1\n      sstore\n      pop\n        /* \"contracts/calculator.sol\":297:367  function multiply(int x, int y) public {... */\n      pop\n      pop\n      jump\t// out\n        /* \"contracts/calculator.sol\":448:519  function get() public view returns (int) {... */\n    tag_13:\n        /* \"contracts/calculator.sol\":484:487  int */\n      0x00\n        /* \"contracts/calculator.sol\":506:512  result */\n      sload(0x00)\n        /* \"contracts/calculator.sol\":499:512  return result */\n      swap1\n      pop\n        /* \"contracts/calculator.sol\":448:519  function get() public view returns (int) {... */\n      swap1\n      jump\t// out\n        /* \"contracts/calculator.sol\":147:215  function add(int x, int y) external  {... */\n    tag_18:\n        /* \"contracts/calculator.sol\":207:208  y */\n      dup1\n        /* \"contracts/calculator.sol\":203:204  x */\n      dup3\n        /* \"contracts/calculator.sol\":203:208  x + y */\n      tag_30\n      swap2\n      swap1\n      tag_31\n      jump\t// in\n    tag_30:\n        /* \"contracts/calculator.sol\":194:200  result */\n      0x00\n        /* \"contracts/calculator.sol\":194:208  result = x + y */\n      dup2\n      swap1\n      sstore\n      pop\n        /* \"contracts/calculator.sol\":147:215  function add(int x, int y) external  {... */\n      pop\n      pop\n      jump\t// out\n        /* \"contracts/calculator.sol\":221:291  function subtract(int x, int y) public {... */\n    tag_21:\n        /* \"contracts/calculator.sol\":283:284  y */\n      dup1\n        /* \"contracts/calculator.sol\":279:280  x */\n      dup3\n        /* \"contracts/calculator.sol\":279:284  x - y */\n      tag_33\n      swap2\n      swap1\n      tag_34\n      jump\t// in\n    tag_33:\n        /* \"contracts/calculator.sol\":270:276  result */\n      0x00\n        /* \"contracts/calculator.sol\":270:284  result = x - y */\n      dup2\n      swap1\n      sstore\n      pop\n        /* \"contracts/calculator.sol\":221:291  function subtract(int x, int y) public {... */\n      pop\n      pop\n      jump\t// out\n        /* \"contracts/calculator.sol\":373:442  function divide(int x, int y) public {... */\n    tag_24:\n        /* \"contracts/calculator.sol\":433:434  y */\n      dup1\n        /* \"contracts/calculator.sol\":429:430  x */\n      dup3\n        /* \"contracts/calculator.sol\":429:434  x / y */\n      tag_36\n      swap2\n      swap1\n      tag_37\n      jump\t// in\n    tag_36:\n        /* \"contracts/calculator.sol\":420:426  result */\n      0x00\n        /* \"contracts/calculator.sol\":420:434  result = x / y */\n      dup2\n      swap1\n      sstore\n      pop\n        /* \"contracts/calculator.sol\":373:442  function divide(int x, int y) public {... */\n      pop\n      pop\n      jump\t// out\n        /* \"#utility.yul\":88:205   */\n    tag_39:\n        /* \"#utility.yul\":197:198   */\n      0x00\n        /* \"#utility.yul\":194:195   */\n      0x00\n        /* \"#utility.yul\":187:199   */\n      revert\n        /* \"#utility.yul\":334:410   */\n    tag_41:\n        /* \"#utility.yul\":370:377   */\n      0x00\n        /* \"#utility.yul\":399:404   */\n      dup2\n        /* \"#utility.yul\":388:404   */\n      swap1\n      pop\n        /* \"#utility.yul\":334:410   */\n      swap2\n      swap1\n      pop\n      jump\t// out\n        /* \"#utility.yul\":416:536   */\n    tag_42:\n        /* \"#utility.yul\":488:511   */\n      tag_53\n        /* \"#utility.yul\":505:510   */\n      dup2\n        /* \"#utility.yul\":488:511   */\n      tag_41\n      jump\t// in\n    tag_53:\n        /* \"#utility.yul\":481:486   */\n      dup2\n        /* \"#utility.yul\":478:512   */\n      eq\n        /* \"#utility.yul\":468:530   */\n      tag_54\n      jumpi\n        /* \"#utility.yul\":526:527   */\n      0x00\n        /* \"#utility.yul\":523:524   */\n      0x00\n        /* \"#utility.yul\":516:528   */\n      revert\n        /* \"#utility.yul\":468:530   */\n    tag_54:\n        /* \"#utility.yul\":416:536   */\n      pop\n      jump\t// out\n        /* \"#utility.yul\":542:679   */\n    tag_43:\n        /* \"#utility.yul\":587:592   */\n      0x00\n        /* \"#utility.yul\":625:631   */\n      dup2\n        /* \"#utility.yul\":612:632   */\n      calldataload\n        /* \"#utility.yul\":603:632   */\n      swap1\n      pop\n        /* \"#utility.yul\":641:673   */\n      tag_56\n        /* \"#utility.yul\":667:672   */\n      dup2\n        /* \"#utility.yul\":641:673   */\n      tag_42\n      jump\t// in\n    tag_56:\n        /* \"#utility.yul\":542:679   */\n      swap3\n      swap2\n      pop\n      pop\n      jump\t// out\n        /* \"#utility.yul\":685:1155   */\n    tag_10:\n        /* \"#utility.yul\":751:757   */\n      0x00\n        /* \"#utility.yul\":759:765   */\n      0x00\n        /* \"#utility.yul\":808:810   */\n      0x40\n        /* \"#utility.yul\":796:805   */\n      dup4\n        /* \"#utility.yul\":787:794   */\n      dup6\n        /* \"#utility.yul\":783:806   */\n      sub\n        /* \"#utility.yul\":779:811   */\n      slt\n        /* \"#utility.yul\":776:895   */\n      iszero\n      tag_58\n      jumpi\n        /* \"#utility.yul\":814:893   */\n      tag_59\n      tag_39\n      jump\t// in\n    tag_59:\n        /* \"#utility.yul\":776:895   */\n    tag_58:\n        /* \"#utility.yul\":934:935   */\n      0x00\n        /* \"#utility.yul\":959:1011   */\n      tag_60\n        /* \"#utility.yul\":1003:1010   */\n      dup6\n        /* \"#utility.yul\":994:1000   */\n      dup3\n        /* \"#utility.yul\":983:992   */\n      dup7\n        /* \"#utility.yul\":979:1001   */\n      add\n        /* \"#utility.yul\":959:1011   */\n      tag_43\n      jump\t// in\n    tag_60:\n        /* \"#utility.yul\":949:1011   */\n      swap3\n      pop\n        /* \"#utility.yul\":905:1021   */\n      pop\n        /* \"#utility.yul\":1060:1062   */\n      0x20\n        /* \"#utility.yul\":1086:1138   */\n      tag_61\n        /* \"#utility.yul\":1130:1137   */\n      dup6\n        /* \"#utility.yul\":1121:1127   */\n      dup3\n        /* \"#utility.yul\":1110:1119   */\n      dup7\n        /* \"#utility.yul\":1106:1128   */\n      add\n        /* \"#utility.yul\":1086:1138   */\n      tag_43\n      jump\t// in\n    tag_61:\n        /* \"#utility.yul\":1076:1138   */\n      swap2\n      pop\n        /* \"#utility.yul\":1031:1148   */\n      pop\n        /* \"#utility.yul\":685:1155   */\n      swap3\n      pop\n      swap3\n      swap1\n      pop\n      jump\t// out\n        /* \"#utility.yul\":1161:1276   */\n    tag_44:\n        /* \"#utility.yul\":1246:1269   */\n      tag_63\n        /* \"#utility.yul\":1263:1268   */\n      dup2\n        /* \"#utility.yul\":1246:1269   */\n      tag_41\n      jump\t// in\n    tag_63:\n        /* \"#utility.yul\":1241:1244   */\n      dup3\n        /* \"#utility.yul\":1234:1270   */\n      mstore\n        /* \"#utility.yul\":1161:1276   */\n      pop\n      pop\n      jump\t// out\n        /* \"#utility.yul\":1282:1500   */\n    tag_15:\n        /* \"#utility.yul\":1373:1377   */\n      0x00\n        /* \"#utility.yul\":1411:1413   */\n      0x20\n        /* \"#utility.yul\":1400:1409   */\n      dup3\n        /* \"#utility.yul\":1396:1414   */\n      add\n        /* \"#utility.yul\":1388:1414   */\n      swap1\n      pop\n        /* \"#utility.yul\":1424:1493   */\n      tag_65\n        /* \"#utility.yul\":1490:1491   */\n      0x00\n        /* \"#utility.yul\":1479:1488   */\n      dup4\n        /* \"#utility.yul\":1475:1492   */\n      add\n        /* \"#utility.yul\":1466:1472   */\n      dup5\n        /* \"#utility.yul\":1424:1493   */\n      tag_44\n      jump\t// in\n    tag_65:\n        /* \"#utility.yul\":1282:1500   */\n      swap3\n      swap2\n      pop\n      pop\n      jump\t// out\n        /* \"#utility.yul\":1506:1686   */\n    tag_45:\n        /* \"#utility.yul\":1554:1631   */\n      0x4e487b7100000000000000000000000000000000000000000000000000000000\n        /* \"#utility.yul\":1551:1552   */\n      0x00\n        /* \"#utility.yul\":1544:1632   */\n      mstore\n        /* \"#utility.yul\":1651:1655   */\n      0x11\n        /* \"#utility.yul\":1648:1649   */\n      0x04\n        /* \"#utility.yul\":1641:1656   */\n      mstore\n        /* \"#utility.yul\":1675:1679   */\n      0x24\n        /* \"#utility.yul\":1672:1673   */\n      0x00\n        /* \"#utility.yul\":1665:1680   */\n      revert\n        /* \"#utility.yul\":1692:2248   */\n    tag_27:\n        /* \"#utility.yul\":1731:1738   */\n      0x00\n        /* \"#utility.yul\":1754:1773   */\n      tag_68\n        /* \"#utility.yul\":1771:1772   */\n      dup3\n        /* \"#utility.yul\":1754:1773   */\n      tag_41\n      jump\t// in\n    tag_68:\n        /* \"#utility.yul\":1749:1773   */\n      swap2\n      pop\n        /* \"#utility.yul\":1787:1806   */\n      tag_69\n        /* \"#utility.yul\":1804:1805   */\n      dup4\n        /* \"#utility.yul\":1787:1806   */\n      tag_41\n      jump\t// in\n    tag_69:\n        /* \"#utility.yul\":1782:1806   */\n      swap3\n      pop\n        /* \"#utility.yul\":1841:1842   */\n      dup3\n        /* \"#utility.yul\":1838:1839   */\n      dup3\n        /* \"#utility.yul\":1834:1843   */\n      mul\n        /* \"#utility.yul\":1863:1892   */\n      tag_70\n        /* \"#utility.yul\":1880:1891   */\n      dup2\n        /* \"#utility.yul\":1863:1892   */\n      tag_41\n      jump\t// in\n    tag_70:\n        /* \"#utility.yul\":1852:1892   */\n      swap2\n      pop\n        /* \"#utility.yul\":1950:2016   */\n      0x8000000000000000000000000000000000000000000000000000000000000000\n        /* \"#utility.yul\":1947:1948   */\n      dup5\n        /* \"#utility.yul\":1944:2017   */\n      eq\n        /* \"#utility.yul\":1940:1941   */\n      0x00\n        /* \"#utility.yul\":1937:1938   */\n      dup5\n        /* \"#utility.yul\":1933:1942   */\n      slt\n        /* \"#utility.yul\":1929:2018   */\n      and\n        /* \"#utility.yul\":1926:2041   */\n      iszero\n      tag_71\n      jumpi\n        /* \"#utility.yul\":2021:2039   */\n      tag_72\n      tag_45\n      jump\t// in\n    tag_72:\n        /* \"#utility.yul\":1926:2041   */\n    tag_71:\n        /* \"#utility.yul\":2191:2192   */\n      dup3\n        /* \"#utility.yul\":2182:2189   */\n      dup3\n        /* \"#utility.yul\":2177:2193   */\n      sdiv\n        /* \"#utility.yul\":2174:2175   */\n      dup5\n        /* \"#utility.yul\":2171:2194   */\n      eq\n        /* \"#utility.yul\":2151:2152   */\n      dup4\n        /* \"#utility.yul\":2144:2153   */\n      iszero\n        /* \"#utility.yul\":2124:2208   */\n      or\n        /* \"#utility.yul\":2101:2241   */\n      tag_73\n      jumpi\n        /* \"#utility.yul\":2221:2239   */\n      tag_74\n      tag_45\n      jump\t// in\n    tag_74:\n        /* \"#utility.yul\":2101:2241   */\n    tag_73:\n        /* \"#utility.yul\":1739:2248   */\n      pop\n        /* \"#utility.yul\":1692:2248   */\n      swap3\n      swap2\n      pop\n      pop\n      jump\t// out\n        /* \"#utility.yul\":2254:2629   */\n    tag_31:\n        /* \"#utility.yul\":2293:2296   */\n      0x00\n        /* \"#utility.yul\":2312:2331   */\n      tag_76\n        /* \"#utility.yul\":2329:2330   */\n      dup3\n        /* \"#utility.yul\":2312:2331   */\n      tag_41\n      jump\t// in\n    tag_76:\n        /* \"#utility.yul\":2307:2331   */\n      swap2\n      pop\n        /* \"#utility.yul\":2345:2364   */\n      tag_77\n        /* \"#utility.yul\":2362:2363   */\n      dup4\n        /* \"#utility.yul\":2345:2364   */\n      tag_41\n      jump\t// in\n    tag_77:\n        /* \"#utility.yul\":2340:2364   */\n      swap3\n      pop\n        /* \"#utility.yul\":2387:2388   */\n      dup3\n        /* \"#utility.yul\":2384:2385   */\n      dup3\n        /* \"#utility.yul\":2380:2389   */\n      add\n        /* \"#utility.yul\":2373:2389   */\n      swap1\n      pop\n        /* \"#utility.yul\":2585:2586   */\n      dup3\n        /* \"#utility.yul\":2580:2583   */\n      dup2\n        /* \"#utility.yul\":2576:2587   */\n      slt\n        /* \"#utility.yul\":2569:2588   */\n      iszero\n        /* \"#utility.yul\":2565:2566   */\n      0x00\n        /* \"#utility.yul\":2562:2563   */\n      dup4\n        /* \"#utility.yul\":2558:2567   */\n      slt\n        /* \"#utility.yul\":2554:2589   */\n      and\n        /* \"#utility.yul\":2537:2538   */\n      dup4\n        /* \"#utility.yul\":2532:2535   */\n      dup3\n        /* \"#utility.yul\":2528:2539   */\n      slt\n        /* \"#utility.yul\":2523:2524   */\n      0x00\n        /* \"#utility.yul\":2520:2521   */\n      dup5\n        /* \"#utility.yul\":2516:2525   */\n      slt\n        /* \"#utility.yul\":2509:2526   */\n      iszero\n        /* \"#utility.yul\":2505:2540   */\n      and\n        /* \"#utility.yul\":2489:2599   */\n      or\n        /* \"#utility.yul\":2486:2622   */\n      iszero\n      tag_78\n      jumpi\n        /* \"#utility.yul\":2602:2620   */\n      tag_79\n      tag_45\n      jump\t// in\n    tag_79:\n        /* \"#utility.yul\":2486:2622   */\n    tag_78:\n        /* \"#utility.yul\":2254:2629   */\n      swap3\n      swap2\n      pop\n      pop\n      jump\t// out\n        /* \"#utility.yul\":2635:3007   */\n    tag_34:\n        /* \"#utility.yul\":2674:2678   */\n      0x00\n        /* \"#utility.yul\":2694:2713   */\n      tag_81\n        /* \"#utility.yul\":2711:2712   */\n      dup3\n        /* \"#utility.yul\":2694:2713   */\n      tag_41\n      jump\t// in\n    tag_81:\n        /* \"#utility.yul\":2689:2713   */\n      swap2\n      pop\n        /* \"#utility.yul\":2727:2746   */\n      tag_82\n        /* \"#utility.yul\":2744:2745   */\n      dup4\n        /* \"#utility.yul\":2727:2746   */\n      tag_41\n      jump\t// in\n    tag_82:\n        /* \"#utility.yul\":2722:2746   */\n      swap3\n      pop\n        /* \"#utility.yul\":2770:2771   */\n      dup3\n        /* \"#utility.yul\":2767:2768   */\n      dup3\n        /* \"#utility.yul\":2763:2772   */\n      sub\n        /* \"#utility.yul\":2755:2772   */\n      swap1\n      pop\n        /* \"#utility.yul\":2964:2965   */\n      dup2\n        /* \"#utility.yul\":2958:2962   */\n      dup2\n        /* \"#utility.yul\":2954:2966   */\n      slt\n        /* \"#utility.yul\":2950:2951   */\n      0x00\n        /* \"#utility.yul\":2947:2948   */\n      dup5\n        /* \"#utility.yul\":2943:2952   */\n      slt\n        /* \"#utility.yul\":2939:2967   */\n      and\n        /* \"#utility.yul\":2922:2923   */\n      dup3\n        /* \"#utility.yul\":2916:2920   */\n      dup3\n        /* \"#utility.yul\":2912:2924   */\n      sgt\n        /* \"#utility.yul\":2907:2908   */\n      0x00\n        /* \"#utility.yul\":2904:2905   */\n      dup6\n        /* \"#utility.yul\":2900:2909   */\n      slt\n        /* \"#utility.yul\":2893:2910   */\n      iszero\n        /* \"#utility.yul\":2889:2925   */\n      and\n        /* \"#utility.yul\":2873:2977   */\n      or\n        /* \"#utility.yul\":2870:3000   */\n      iszero\n      tag_83\n      jumpi\n        /* \"#utility.yul\":2980:2998   */\n      tag_84\n      tag_45\n      jump\t// in\n    tag_84:\n        /* \"#utility.yul\":2870:3000   */\n    tag_83:\n        /* \"#utility.yul\":2635:3007   */\n      swap3\n      swap2\n      pop\n      pop\n      jump\t// out\n        /* \"#utility.yul\":3013:3193   */\n    tag_46:\n        /* \"#utility.yul\":3061:3138   */\n      0x4e487b7100000000000000000000000000000000000000000000000000000000\n        /* \"#utility.yul\":3058:3059   */\n      0x00\n        /* \"#utility.yul\":3051:3139   */\n      mstore\n        /* \"#utility.yul\":3158:3162   */\n      0x12\n        /* \"#utility.yul\":3155:3156   */\n      0x04\n        /* \"#utility.yul\":3148:3163   */\n      mstore\n        /* \"#utility.yul\":3182:3186   */\n      0x24\n        /* \"#utility.yul\":3179:3180   */\n      0x00\n        /* \"#utility.yul\":3172:3187   */\n      revert\n        /* \"#utility.yul\":3199:3584   */\n    tag_37:\n        /* \"#utility.yul\":3238:3239   */\n      0x00\n        /* \"#utility.yul\":3255:3274   */\n      tag_87\n        /* \"#utility.yul\":3272:3273   */\n      dup3\n        /* \"#utility.yul\":3255:3274   */\n      tag_41\n      jump\t// in\n    tag_87:\n        /* \"#utility.yul\":3250:3274   */\n      swap2\n      pop\n        /* \"#utility.yul\":3288:3307   */\n      tag_88\n        /* \"#utility.yul\":3305:3306   */\n      dup4\n        /* \"#utility.yul\":3288:3307   */\n      tag_41\n      jump\t// in\n    tag_88:\n        /* \"#utility.yul\":3283:3307   */\n      swap3\n      pop\n        /* \"#utility.yul\":3326:3327   */\n      dup3\n        /* \"#utility.yul\":3316:3351   */\n      tag_89\n      jumpi\n        /* \"#utility.yul\":3331:3349   */\n      tag_90\n      tag_46\n      jump\t// in\n    tag_90:\n        /* \"#utility.yul\":3316:3351   */\n    tag_89:\n        /* \"#utility.yul\":3517:3518   */\n      0x01\n        /* \"#utility.yul\":3514:3515   */\n      0x00\n        /* \"#utility.yul\":3510:3519   */\n      sub\n        /* \"#utility.yul\":3507:3508   */\n      dup4\n        /* \"#utility.yul\":3504:3520   */\n      eq\n        /* \"#utility.yul\":3423:3489   */\n      0x8000000000000000000000000000000000000000000000000000000000000000\n        /* \"#utility.yul\":3420:3421   */\n      dup4\n        /* \"#utility.yul\":3417:3490   */\n      eq\n        /* \"#utility.yul\":3400:3530   */\n      and\n        /* \"#utility.yul\":3397:3553   */\n      iszero\n      tag_91\n      jumpi\n        /* \"#utility.yul\":3533:3551   */\n      tag_92\n      tag_45\n      jump\t// in\n    tag_92:\n        /* \"#utility.yul\":3397:3553   */\n    tag_91:\n        /* \"#utility.yul\":3576:3577   */\n      dup3\n        /* \"#utility.yul\":3573:3574   */\n      dup3\n        /* \"#utility.yul\":3568:3578   */\n      sdiv\n        /* \"#utility.yul\":3563:3578   */\n      swap1\n      pop\n        /* \"#utility.yul\":3199:3584   */\n      swap3\n      swap2\n      pop\n      pop\n      jump\t// out\n\n    auxdata: 0xa264697066735822122059d662f30cb5c291d6b17db48ea41b071c9e87b8bdb2f7e1c43c4465e320964664736f6c634300081e0033\n}\n",
				"bytecode": {
					"linkReferences": {},
					"object": "6080604052348015600e575f5ffd5b505f5f819055506103cf806100225f395ff3fe608060405234801561000f575f5ffd5b5060043610610055575f3560e01c80633c4308a8146100595780636d4ce63c14610075578063a5f3c23b14610093578063b93ea812146100af578063f5984236146100cb575b5f5ffd5b610073600480360381019061006e919061017a565b6100e7565b005b61007d6100fc565b60405161008a91906101c7565b60405180910390f35b6100ad60048036038101906100a8919061017a565b610104565b005b6100c960048036038101906100c4919061017a565b610119565b005b6100e560048036038101906100e0919061017a565b61012e565b005b80826100f3919061020d565b5f819055505050565b5f5f54905090565b80826101109190610283565b5f819055505050565b808261012591906102c4565b5f819055505050565b808261013a9190610331565b5f819055505050565b5f5ffd5b5f819050919050565b61015981610147565b8114610163575f5ffd5b50565b5f8135905061017481610150565b92915050565b5f5f604083850312156101905761018f610143565b5b5f61019d85828601610166565b92505060206101ae85828601610166565b9150509250929050565b6101c181610147565b82525050565b5f6020820190506101da5f8301846101b8565b92915050565b7f4e487b71000000000000000000000000000000000000000000000000000000005f52601160045260245ffd5b5f61021782610147565b915061022283610147565b925082820261023081610147565b91507f800000000000000000000000000000000000000000000000000000000000000084145f84121615610267576102666101e0565b5b828205841483151761027c5761027b6101e0565b5b5092915050565b5f61028d82610147565b915061029883610147565b92508282019050828112155f8312168382125f8412151617156102be576102bd6101e0565b5b92915050565b5f6102ce82610147565b91506102d983610147565b925082820390508181125f8412168282135f8512151617156102fe576102fd6101e0565b5b92915050565b7f4e487b71000000000000000000000000000000000000000000000000000000005f52601260045260245ffd5b5f61033b82610147565b915061034683610147565b92508261035657610355610304565b5b60015f0383147f80000000000000000000000000000000000000000000000000000000000000008314161561038e5761038d6101e0565b5b82820590509291505056fea264697066735822122059d662f30cb5c291d6b17db48ea41b071c9e87b8bdb2f7e1c43c4465e320964664736f6c634300081e0033",
					"opcodes": "PUSH1 0x80 PUSH1 0x40 MSTORE CALLVALUE DUP1 ISZERO PUSH1 0xE JUMPI PUSH0 PUSH0 REVERT JUMPDEST POP PUSH0 PUSH0 DUP2 SWAP1 SSTORE POP PUSH2 0x3CF DUP1 PUSH2 0x22 PUSH0 CODECOPY PUSH0 RETURN INVALID PUSH1 0x80 PUSH1 0x40 MSTORE CALLVALUE DUP1 ISZERO PUSH2 0xF JUMPI PUSH0 PUSH0 REVERT JUMPDEST POP PUSH1 0x4 CALLDATASIZE LT PUSH2 0x55 JUMPI PUSH0 CALLDATALOAD PUSH1 0xE0 SHR DUP1 PUSH4 0x3C4308A8 EQ PUSH2 0x59 JUMPI DUP1 PUSH4 0x6D4CE63C EQ PUSH2 0x75 JUMPI DUP1 PUSH4 0xA5F3C23B EQ PUSH2 0x93 JUMPI DUP1 PUSH4 0xB93EA812 EQ PUSH2 0xAF JUMPI DUP1 PUSH4 0xF5984236 EQ PUSH2 0xCB JUMPI JUMPDEST PUSH0 PUSH0 REVERT JUMPDEST PUSH2 0x73 PUSH1 0x4 DUP1 CALLDATASIZE SUB DUP2 ADD SWAP1 PUSH2 0x6E SWAP2 SWAP1 PUSH2 0x17A JUMP JUMPDEST PUSH2 0xE7 JUMP JUMPDEST STOP JUMPDEST PUSH2 0x7D PUSH2 0xFC JUMP JUMPDEST PUSH1 0x40 MLOAD PUSH2 0x8A SWAP2 SWAP1 PUSH2 0x1C7 JUMP JUMPDEST PUSH1 0x40 MLOAD DUP1 SWAP2 SUB SWAP1 RETURN JUMPDEST PUSH2 0xAD PUSH1 0x4 DUP1 CALLDATASIZE SUB DUP2 ADD SWAP1 PUSH2 0xA8 SWAP2 SWAP1 PUSH2 0x17A JUMP JUMPDEST PUSH2 0x104 JUMP JUMPDEST STOP JUMPDEST PUSH2 0xC9 PUSH1 0x4 DUP1 CALLDATASIZE SUB DUP2 ADD SWAP1 PUSH2 0xC4 SWAP2 SWAP1 PUSH2 0x17A JUMP JUMPDEST PUSH2 0x119 JUMP JUMPDEST STOP JUMPDEST PUSH2 0xE5 PUSH1 0x4 DUP1 CALLDATASIZE SUB DUP2 ADD SWAP1 PUSH2 0xE0 SWAP2 SWAP1 PUSH2 0x17A JUMP JUMPDEST PUSH2 0x12E JUMP JUMPDEST STOP JUMPDEST DUP1 DUP3 PUSH2 0xF3 SWAP2 SWAP1 PUSH2 0x20D JUMP JUMPDEST PUSH0 DUP2 SWAP1 SSTORE POP POP POP JUMP JUMPDEST PUSH0 PUSH0 SLOAD SWAP1 POP SWAP1 JUMP JUMPDEST DUP1 DUP3 PUSH2 0x110 SWAP2 SWAP1 PUSH2 0x283 JUMP JUMPDEST PUSH0 DUP2 SWAP1 SSTORE POP POP POP JUMP JUMPDEST DUP1 DUP3 PUSH2 0x125 SWAP2 SWAP1 PUSH2 0x2C4 JUMP JUMPDEST PUSH0 DUP2 SWAP1 SSTORE POP POP POP JUMP JUMPDEST DUP1 DUP3 PUSH2 0x13A SWAP2 SWAP1 PUSH2 0x331 JUMP JUMPDEST PUSH0 DUP2 SWAP1 SSTORE POP POP POP JUMP JUMPDEST PUSH0 PUSH0 REVERT JUMPDEST PUSH0 DUP2 SWAP1 POP SWAP2 SWAP1 POP JUMP JUMPDEST PUSH2 0x159 DUP2 PUSH2 0x147 JUMP JUMPDEST DUP2 EQ PUSH2 0x163 JUMPI PUSH0 PUSH0 REVERT JUMPDEST POP JUMP JUMPDEST PUSH0 DUP2 CALLDATALOAD SWAP1 POP PUSH2 0x174 DUP2 PUSH2 0x150 JUMP JUMPDEST SWAP3 SWAP2 POP POP JUMP JUMPDEST PUSH0 PUSH0 PUSH1 0x40 DUP4 DUP6 SUB SLT ISZERO PUSH2 0x190 JUMPI PUSH2 0x18F PUSH2 0x143 JUMP JUMPDEST JUMPDEST PUSH0 PUSH2 0x19D DUP6 DUP3 DUP7 ADD PUSH2 0x166 JUMP JUMPDEST SWAP3 POP POP PUSH1 0x20 PUSH2 0x1AE DUP6 DUP3 DUP7 ADD PUSH2 0x166 JUMP JUMPDEST SWAP2 POP POP SWAP3 POP SWAP3 SWAP1 POP JUMP JUMPDEST PUSH2 0x1C1 DUP2 PUSH2 0x147 JUMP JUMPDEST DUP3 MSTORE POP POP JUMP JUMPDEST PUSH0 PUSH1 0x20 DUP3 ADD SWAP1 POP PUSH2 0x1DA PUSH0 DUP4 ADD DUP5 PUSH2 0x1B8 JUMP JUMPDEST SWAP3 SWAP2 POP POP JUMP JUMPDEST PUSH32 0x4E487B7100000000000000000000000000000000000000000000000000000000 PUSH0 MSTORE PUSH1 0x11 PUSH1 0x4 MSTORE PUSH1 0x24 PUSH0 REVERT JUMPDEST PUSH0 PUSH2 0x217 DUP3 PUSH2 0x147 JUMP JUMPDEST SWAP2 POP PUSH2 0x222 DUP4 PUSH2 0x147 JUMP JUMPDEST SWAP3 POP DUP3 DUP3 MUL PUSH2 0x230 DUP2 PUSH2 0x147 JUMP JUMPDEST SWAP2 POP PUSH32 0x8000000000000000000000000000000000000000000000000000000000000000 DUP5 EQ PUSH0 DUP5 SLT AND ISZERO PUSH2 0x267 JUMPI PUSH2 0x266 PUSH2 0x1E0 JUMP JUMPDEST JUMPDEST DUP3 DUP3 SDIV DUP5 EQ DUP4 ISZERO OR PUSH2 0x27C JUMPI PUSH2 0x27B PUSH2 0x1E0 JUMP JUMPDEST JUMPDEST POP SWAP3 SWAP2 POP POP JUMP JUMPDEST PUSH0 PUSH2 0x28D DUP3 PUSH2 0x147 JUMP JUMPDEST SWAP2 POP PUSH2 0x298 DUP4 PUSH2 0x147 JUMP JUMPDEST SWAP3 POP DUP3 DUP3 ADD SWAP1 POP DUP3 DUP2 SLT ISZERO PUSH0 DUP4 SLT AND DUP4 DUP3 SLT PUSH0 DUP5 SLT ISZERO AND OR ISZERO PUSH2 0x2BE JUMPI PUSH2 0x2BD PUSH2 0x1E0 JUMP JUMPDEST JUMPDEST SWAP3 SWAP2 POP POP JUMP JUMPDEST PUSH0 PUSH2 0x2CE DUP3 PUSH2 0x147 JUMP JUMPDEST SWAP2 POP PUSH2 0x2D9 DUP4 PUSH2 0x147 JUMP JUMPDEST SWAP3 POP DUP3 DUP3 SUB SWAP1 POP DUP2 DUP2 SLT PUSH0 DUP5 SLT AND DUP3 DUP3 SGT PUSH0 DUP6 SLT ISZERO AND OR ISZERO PUSH2 0x2FE JUMPI PUSH2 0x2FD PUSH2 0x1E0 JUMP JUMPDEST JUMPDEST SWAP3 SWAP2 POP POP JUMP JUMPDEST PUSH32 0x4E487B7100000000000000000000000000000000000000000000000000000000 PUSH0 MSTORE PUSH1 0x12 PUSH1 0x4 MSTORE PUSH1 0x24 PUSH0 REVERT JUMPDEST PUSH0 PUSH2 0x33B DUP3 PUSH2 0x147 JUMP JUMPDEST SWAP2 POP PUSH2 0x346 DUP4 PUSH2 0x147 JUMP JUMPDEST SWAP3 POP DUP3 PUSH2 0x356 JUMPI PUSH2 0x355 PUSH2 0x304 JUMP JUMPDEST JUMPDEST PUSH1 0x1 PUSH0 SUB DUP4 EQ PUSH32 0x8000000000000000000000000000000000000000000000000000000000000000 DUP4 EQ AND ISZERO PUSH2 0x38E JUMPI PUSH2 0x38D PUSH2 0x1E0 JUMP JUMPDEST JUMPDEST DUP3 DUP3 SDIV SWAP1 POP SWAP3 SWAP2 POP POP JUMP INVALID LOG2 PUSH5 0x6970667358 0x22 SLT KECCAK256 MSIZE 0xD6 PUSH3 0xF30CB5 0xC2 SWAP2 0xD6 0xB1 PUSH30 0xB48EA41B071C9E87B8BDB2F7E1C43C4465E320964664736F6C634300081E STOP CALLER "
				},
				"gasEstimates": {
					"creation": {
						"codeDepositCost": "195000",
						"executionCost": "5248",
						"totalCost": "200248"
					},
					"external": {
						"add(int256,int256)": "infinite",
						"divide(int256,int256)": "infinite",
						"get()": "2431",
						"multiply(int256,int256)": "infinite",
						"subtract(int256,int256)": "infinite"
					}
				},
				"methodIdentifiers": {
					"add(int256,int256)": "a5f3c23b",
					"divide(int256,int256)": "f5984236",
					"get()": "6d4ce63c",
					"multiply(int256,int256)": "3c4308a8",
					"subtract(int256,int256)": "b93ea812"
				}
			},
			"storageLayout": {
				"storage": [
					{
						"astId": 3,
						"contract": "contracts/calculator.sol:calculator",
						"label": "result",
						"offset": 0,
						"slot": "0",
						"type": "t_int256"
					}
				],
				"types": {
					"t_int256": {
						"encoding": "inplace",
						"label": "int256",
						"numberOfBytes": "32"
					}
				}
			},
			"userdoc": {
				"kind": "user",
				"methods": {},
				"version": 1
			}
		}
	}
}